:03000000020003F8
:0C000300787FE4F6D8FD75810F02004AFA
:04017400AB07AA0625
:10017800E4F583F5827C037DE8AF03AE0212008FBD
:100188007C007D321200A1C3E5829FE5839E500C5E
:10019800D28C308DFDC28CC28DA380D97E007F01A8
:0101A8002234
:1001DC00759850758921758DFDD28ED2AC43B00CBB
:1001EC00D2A8D2AAD2A9D28CD2AFD2ADD2C9758C98
:0D01FC004B758AFD75CDFF75CCFDD2BC2280
:1000F600E4F50EF50FD2A8D2937F0A7E00120174A2
:10010600EF4E701030B2FD20B2FD050FE50F70E91D
:10011600050E80E5C2A8C293740A2509F509E435DF
:1001260008F508D3E50F9402E50E940040057E001D
:070136007F0122E4FEFF221D
:10013D000509E50970020508643C45087028F508B5
:10014D00F509050BE50B7002050A643C450A7016AE
:10015D00F50AF50B050DE50D7002050C6418450C3F
:07016D007004F50CF50D22F2
:1001A900E50D6406450C702AE50B450A7024E5093E
:1001B9004508701E1200F6EF4E6017D2AA20B30E42
:1001C90012013D7F017E00120174D29280EFC2AA12
:0301D900C29222AD
:0C022600020C000C020A0000020800009C
:10020900E4F580F590F5A0F5B01201DCC290120179
:0D0219003D1201A97F017E0012017480F1E9
:10000F00020209E493A3F8E493A34003F68001F2FC
:10001F0008DFF48029E493A3F85407240CC8C333F2
:10002F00C4540F4420C8834004F456800146F6DFC1
:10003F00E4800B0102040810204080900226E47E29
:10004F00019360BCA3FF543F30E509541FFEE493B6
:10005F00A360010ECF54C025E060A840B8E493A37D
:10006F00FAE493A3F8E493A3C8C582C8CAC583CAA8
:10007F00F0A3C8C582C8CAC583CADFE9DEE780BE60
:0102320000CB
:10008F00EF8DF0A4A8F0CF8CF0A428CE8DF0A42E85
:02009F00FE223F
:1000A100BC000BBE0029EF8DF084FFADF022E4CC43
:1000B100F875F008EF2FFFEE33FEEC33FCEE9DEC0C
:1000C100984005FCEE9DFE0FD5F0E9E4CEFD22ED52
:1000D100F8F5F0EE8420D21CFEADF075F008EF2F9C
:1000E100FFED33FD4007985006D5F0F222C398FD8D
:0500F1000FD5F0EA222A
:00000001FF
