:0400FC00AB07AA069E
:100100009000007C017DF4AF03AE02120171EF6537
:10011000827003EE65836015758901758CF8758AA8
:0D012000CCD28C308DFDC28CC28DA380D658
:01012D0022AF
:10012E00E4F50EF50FD2A8D2937F0AFE1200FC75ED
:10013E00080075090AC2A8C293D3E50F9403E50E11
:0D014E00940040057E007F0122E4FEFF22A8
:100092000509E50970020508643C45087028F50861
:1000A200F509050BE50B7002050A643C450A70165A
:1000B200F50AF50B050DE50D7002050C6418450CEB
:0700C2007004F50CF50D229E
:1000C900E50D450C702CE50B450A7026E509640A17
:1000D9004508701E12012EEF4E6017D2AA20B30EEA
:1000E9001200927F017E001200FCD29280EFC2AA18
:0300F900C292228E
:0C019000020C0000020A0000020800003F
:0300030002018374
:0D018300C0E0050FE50F7002050ED0E03260
:10015B0043B00CD2AFC2901200921200C97F017E45
:06016B00001200FC80F10F
:03000000020006F5
:0C000600787FE4F6D8FD75810F02004DF4
:10017100EF8DF0A4A8F0CF8CF0A428CE8DF0A42EA2
:02018100FE225C
:1000120002015BE493A3F8E493A34003F68001F2A8
:1000220008DFF48029E493A3F85407240CC8C333EF
:10003200C4540F4420C8834004F456800146F6DFBE
:10004200E4800B0102040810204080900190E47EBD
:10005200019360BCA3FF543F30E509541FFEE493B3
:10006200A360010ECF54C025E060A840B8E493A37A
:10007200FAE493A3F8E493A3C8C582C8CAC583CAA5
:10008200F0A3C8C582C8CAC583CADFE9DEE780BE5D
:01019C000062
:00000001FF
