:030000000201807A
:0C018000787FE4F6D8FD75810A02006A61
:0400F600AB07AA06A4
:1000FA00E4F583F5827C037DE8AF03AE02120003C8
:10010A007C007D32120015C3E5829FE5839E500C68
:10011A00D28C308DFDC28CC28DA380D97E007F0126
:01012A0022B2
:10012B00759850758921758DFDD28ED2AC43B00C6C
:10013B00D2A8D2AAD2A9D28CD2AFD2ADD2C9758C49
:0D014B004B758AFD75CDFF75CCFDD2BC2231
:10015800E4F509F50AD2A8D29330B2FD20B2FD0524
:100168000AE50A70020509B490EFE509B401EAC28C
:0801780093C2A87E007F012262
:1000BA00E4F509F50AD2A8D2937F0A7E001200F667
:1000CA00EF4E701030B2FD20B2FD050AE50A70E964
:1000DA00050980E5C2A8C293D3E50A9402E509940A
:0C00EA000040057E007F0122E4FEFF22A2
:10006A00E4F508F580F590F5A0F5B012012BC290E1
:10007A00E50814601D1460292402702FC29220B36F
:10008A000575080280EA30B3E7120158EF4E60E0C6
:10009A00800530B307D29275080180D4E4F5088050
:1000AA00CF7F0A7E001200F6E4F508E4F50880C066
:10000300EF8DF0A4A8F0CF8CF0A428CE8DF0A42E11
:02001300FE22CB
:10001500BC000BBE0029EF8DF084FFADF022E4CCCF
:10002500F875F008EF2FFFEE33FEEC33FCEE9DEC98
:10003500984005FCEE9DFE0FD5F0E9E4CEFD22EDDE
:10004500F8F5F0EE8420D21CFEADF075F008EF2F28
:10005500FFED33FD4007985006D5F0F222C398FD19
:050065000FD5F0EA22B6
:00000001FF
